{
  "address": "0x5FbDB2315678afecb367f032d93F642f64180aa3",
  "abi": [
    {
      "inputs": [],
      "name": "lastTipId",
      "outputs": [
        {
          "internalType": "uint256",
          "name": "",
          "type": "uint256"
        }
      ],
      "stateMutability": "view",
      "type": "function"
    },
    {
      "inputs": [
        {
          "internalType": "address",
          "name": "tokenAddress",
          "type": "address"
        },
        {
          "internalType": "uint256",
          "name": "amount",
          "type": "uint256"
        },
        {
          "internalType": "address",
          "name": "payee",
          "type": "address"
        },
        {
          "internalType": "string",
          "name": "note",
          "type": "string"
        },
        {
          "internalType": "string",
          "name": "image",
          "type": "string"
        }
      ],
      "name": "tip",
      "outputs": [],
      "stateMutability": "nonpayable",
      "type": "function"
    },
    {
      "inputs": [
        {
          "internalType": "uint256",
          "name": "",
          "type": "uint256"
        }
      ],
      "name": "tips",
      "outputs": [
        {
          "internalType": "address",
          "name": "token",
          "type": "address"
        },
        {
          "internalType": "uint256",
          "name": "amount",
          "type": "uint256"
        },
        {
          "internalType": "address",
          "name": "payer",
          "type": "address"
        },
        {
          "internalType": "address",
          "name": "payee",
          "type": "address"
        },
        {
          "internalType": "string",
          "name": "note",
          "type": "string"
        },
        {
          "internalType": "string",
          "name": "image",
          "type": "string"
        }
      ],
      "stateMutability": "view",
      "type": "function"
    }
  ],
  "transactionHash": "0x06d86704fb52365f8d7e7960a4d6f18f03d3cf116733efd88f12fce181e8a139",
  "args": [],
  "numDeployments": 1,
  "solcInputHash": "93ef182adc6ef6ff662859b3d8b14854",
  "bytecode": "0x608060405234801561001057600080fd5b50610f25806100206000396000f3fe608060405234801561001057600080fd5b50600436106100415760003560e01c80632138b7541461004657806337b3a1da14610064578063a5c68c5914610080575b600080fd5b61004e6100b5565b60405161005b91906105b9565b60405180910390f35b61007e600480360381019061007991906107b8565b6100bb565b005b61009a6004803603810190610095919061086b565b6103f4565b6040516100ac96959493929190610926565b60405180910390f35b60015481565b600085905060008173ffffffffffffffffffffffffffffffffffffffff1663dd62ed3e33306040518363ffffffff1660e01b81526004016100fd929190610995565b602060405180830381865afa15801561011a573d6000803e3d6000fd5b505050506040513d601f19601f8201168201806040525081019061013e91906109d3565b905085811015610183576040517f08c379a000000000000000000000000000000000000000000000000000000000815260040161017a90610a72565b60405180910390fd5b8173ffffffffffffffffffffffffffffffffffffffff166323b872dd3387896040518463ffffffff1660e01b81526004016101c093929190610a92565b6020604051808303816000875af11580156101df573d6000803e3d6000fd5b505050506040513d601f19601f820116820180604052508101906102039190610b01565b610242576040517f08c379a000000000000000000000000000000000000000000000000000000000815260040161023990610b7a565b60405180910390fd5b6001600081548092919061025590610bc9565b91905055506040518060c001604052808873ffffffffffffffffffffffffffffffffffffffff1681526020018781526020013373ffffffffffffffffffffffffffffffffffffffff1681526020018673ffffffffffffffffffffffffffffffffffffffff16815260200185815260200184815250600080600154815260200190815260200160002060008201518160000160006101000a81548173ffffffffffffffffffffffffffffffffffffffff021916908373ffffffffffffffffffffffffffffffffffffffff1602179055506020820151816001015560408201518160020160006101000a81548173ffffffffffffffffffffffffffffffffffffffff021916908373ffffffffffffffffffffffffffffffffffffffff16021790555060608201518160030160006101000a81548173ffffffffffffffffffffffffffffffffffffffff021916908373ffffffffffffffffffffffffffffffffffffffff16021790555060808201518160040190816103d19190610e1d565b5060a08201518160050190816103e79190610e1d565b5090505050505050505050565b60006020528060005260406000206000915090508060000160009054906101000a900473ffffffffffffffffffffffffffffffffffffffff16908060010154908060020160009054906101000a900473ffffffffffffffffffffffffffffffffffffffff16908060030160009054906101000a900473ffffffffffffffffffffffffffffffffffffffff169080600401805461048f90610c40565b80601f01602080910402602001604051908101604052809291908181526020018280546104bb90610c40565b80156105085780601f106104dd57610100808354040283529160200191610508565b820191906000526020600020905b8154815290600101906020018083116104eb57829003601f168201915b50505050509080600501805461051d90610c40565b80601f016020809104026020016040519081016040528092919081815260200182805461054990610c40565b80156105965780601f1061056b57610100808354040283529160200191610596565b820191906000526020600020905b81548152906001019060200180831161057957829003601f168201915b5050505050905086565b6000819050919050565b6105b3816105a0565b82525050565b60006020820190506105ce60008301846105aa565b92915050565b6000604051905090565b600080fd5b600080fd5b600073ffffffffffffffffffffffffffffffffffffffff82169050919050565b6000610613826105e8565b9050919050565b61062381610608565b811461062e57600080fd5b50565b6000813590506106408161061a565b92915050565b61064f816105a0565b811461065a57600080fd5b50565b60008135905061066c81610646565b92915050565b600080fd5b600080fd5b6000601f19601f8301169050919050565b7f4e487b7100000000000000000000000000000000000000000000000000000000600052604160045260246000fd5b6106c58261067c565b810181811067ffffffffffffffff821117156106e4576106e361068d565b5b80604052505050565b60006106f76105d4565b905061070382826106bc565b919050565b600067ffffffffffffffff8211156107235761072261068d565b5b61072c8261067c565b9050602081019050919050565b82818337600083830152505050565b600061075b61075684610708565b6106ed565b90508281526020810184848401111561077757610776610677565b5b610782848285610739565b509392505050565b600082601f83011261079f5761079e610672565b5b81356107af848260208601610748565b91505092915050565b600080600080600060a086880312156107d4576107d36105de565b5b60006107e288828901610631565b95505060206107f38882890161065d565b945050604061080488828901610631565b935050606086013567ffffffffffffffff811115610825576108246105e3565b5b6108318882890161078a565b925050608086013567ffffffffffffffff811115610852576108516105e3565b5b61085e8882890161078a565b9150509295509295909350565b600060208284031215610881576108806105de565b5b600061088f8482850161065d565b91505092915050565b6108a181610608565b82525050565b600081519050919050565b600082825260208201905092915050565b60005b838110156108e15780820151818401526020810190506108c6565b60008484015250505050565b60006108f8826108a7565b61090281856108b2565b93506109128185602086016108c3565b61091b8161067c565b840191505092915050565b600060c08201905061093b6000830189610898565b61094860208301886105aa565b6109556040830187610898565b6109626060830186610898565b818103608083015261097481856108ed565b905081810360a083015261098881846108ed565b9050979650505050505050565b60006040820190506109aa6000830185610898565b6109b76020830184610898565b9392505050565b6000815190506109cd81610646565b92915050565b6000602082840312156109e9576109e86105de565b5b60006109f7848285016109be565b91505092915050565b7f5469707065723a207472616e7366657220616d6f756e74206e6f74206170707260008201527f6f76656400000000000000000000000000000000000000000000000000000000602082015250565b6000610a5c6024836108b2565b9150610a6782610a00565b604082019050919050565b60006020820190508181036000830152610a8b81610a4f565b9050919050565b6000606082019050610aa76000830186610898565b610ab46020830185610898565b610ac160408301846105aa565b949350505050565b60008115159050919050565b610ade81610ac9565b8114610ae957600080fd5b50565b600081519050610afb81610ad5565b92915050565b600060208284031215610b1757610b166105de565b5b6000610b2584828501610aec565b91505092915050565b7f5469707065723a207472616e73666572206661696c6564000000000000000000600082015250565b6000610b646017836108b2565b9150610b6f82610b2e565b602082019050919050565b60006020820190508181036000830152610b9381610b57565b9050919050565b7f4e487b7100000000000000000000000000000000000000000000000000000000600052601160045260246000fd5b6000610bd4826105a0565b91507fffffffffffffffffffffffffffffffffffffffffffffffffffffffffffffffff8203610c0657610c05610b9a565b5b600182019050919050565b7f4e487b7100000000000000000000000000000000000000000000000000000000600052602260045260246000fd5b60006002820490506001821680610c5857607f821691505b602082108103610c6b57610c6a610c11565b5b50919050565b60008190508160005260206000209050919050565b60006020601f8301049050919050565b600082821b905092915050565b600060088302610cd37fffffffffffffffffffffffffffffffffffffffffffffffffffffffffffffffff82610c96565b610cdd8683610c96565b95508019841693508086168417925050509392505050565b6000819050919050565b6000610d1a610d15610d10846105a0565b610cf5565b6105a0565b9050919050565b6000819050919050565b610d3483610cff565b610d48610d4082610d21565b848454610ca3565b825550505050565b600090565b610d5d610d50565b610d68818484610d2b565b505050565b5b81811015610d8c57610d81600082610d55565b600181019050610d6e565b5050565b601f821115610dd157610da281610c71565b610dab84610c86565b81016020851015610dba578190505b610dce610dc685610c86565b830182610d6d565b50505b505050565b600082821c905092915050565b6000610df460001984600802610dd6565b1980831691505092915050565b6000610e0d8383610de3565b9150826002028217905092915050565b610e26826108a7565b67ffffffffffffffff811115610e3f57610e3e61068d565b5b610e498254610c40565b610e54828285610d90565b600060209050601f831160018114610e875760008415610e75578287015190505b610e7f8582610e01565b865550610ee7565b601f198416610e9586610c71565b60005b82811015610ebd57848901518255600182019150602085019450602081019050610e98565b86831015610eda5784890151610ed6601f891682610de3565b8355505b6001600288020188555050505b50505050505056fea264697066735822122044209f38bc14fc4b1259ab0efc5829e31b86b9ad2a6350a963bbbff579596b7264736f6c63430008140033",
  "devdoc": {
    "kind": "dev",
    "methods": {},
    "version": 1
  },
  "userdoc": {
    "kind": "user",
    "methods": {},
    "version": 1
  },
  "storageLayout": {
    "storage": [
      {
        "astId": 806,
        "contract": "contracts/Tipper.sol:Tipper",
        "label": "tips",
        "offset": 0,
        "slot": "0",
        "type": "t_mapping(t_uint256,t_struct(Tip)801_storage)"
      },
      {
        "astId": 808,
        "contract": "contracts/Tipper.sol:Tipper",
        "label": "lastTipId",
        "offset": 0,
        "slot": "1",
        "type": "t_uint256"
      }
    ],
    "types": {
      "t_address": {
        "encoding": "inplace",
        "label": "address",
        "numberOfBytes": "20"
      },
      "t_mapping(t_uint256,t_struct(Tip)801_storage)": {
        "encoding": "mapping",
        "key": "t_uint256",
        "label": "mapping(uint256 => struct Tipper.Tip)",
        "numberOfBytes": "32",
        "value": "t_struct(Tip)801_storage"
      },
      "t_string_storage": {
        "encoding": "bytes",
        "label": "string",
        "numberOfBytes": "32"
      },
      "t_struct(Tip)801_storage": {
        "encoding": "inplace",
        "label": "struct Tipper.Tip",
        "members": [
          {
            "astId": 790,
            "contract": "contracts/Tipper.sol:Tipper",
            "label": "token",
            "offset": 0,
            "slot": "0",
            "type": "t_address"
          },
          {
            "astId": 792,
            "contract": "contracts/Tipper.sol:Tipper",
            "label": "amount",
            "offset": 0,
            "slot": "1",
            "type": "t_uint256"
          },
          {
            "astId": 794,
            "contract": "contracts/Tipper.sol:Tipper",
            "label": "payer",
            "offset": 0,
            "slot": "2",
            "type": "t_address"
          },
          {
            "astId": 796,
            "contract": "contracts/Tipper.sol:Tipper",
            "label": "payee",
            "offset": 0,
            "slot": "3",
            "type": "t_address"
          },
          {
            "astId": 798,
            "contract": "contracts/Tipper.sol:Tipper",
            "label": "note",
            "offset": 0,
            "slot": "4",
            "type": "t_string_storage"
          },
          {
            "astId": 800,
            "contract": "contracts/Tipper.sol:Tipper",
            "label": "image",
            "offset": 0,
            "slot": "5",
            "type": "t_string_storage"
          }
        ],
        "numberOfBytes": "192"
      },
      "t_uint256": {
        "encoding": "inplace",
        "label": "uint256",
        "numberOfBytes": "32"
      }
    }
  }
}